{
  "transactions": [
    {
      "hash": "0x3f8cccd32b07642c00afea5d7b2e61b7e3a3aea6ed444c0d20db94106946ca5b",
      "transactionType": "CALL",
      "contractName": null,
      "contractAddress": "0xcdd7901fa3cd7a1af95b84a8b67569c7bce14a43",
      "function": "mintNft(string)",
      "arguments": [
        "ipfs://bafybeig37ioir76s7mg5oobetncojcm3c3hxasyd4rvid4jqhy4gkaheg4/?filename=0-PUG.json"
      ],
      "transaction": {
        "from": "0x28c383fc8666f050a6fdea1d5d586e814f9dfe8f",
        "to": "0xcdd7901fa3cd7a1af95b84a8b67569c7bce14a43",
        "gas": "0x31d70",
        "value": "0x0",
        "input": "0xda86f4a900000000000000000000000000000000000000000000000000000000000000200000000000000000000000000000000000000000000000000000000000000057697066733a2f2f62616679626569673337696f6972373673376d67356f6f6265746e636f6a636d3363336878617379643472766964346a71687934676b61686567342f3f66696c656e616d653d302d5055472e6a736f6e000000000000000000",
        "nonce": "0x2f",
        "chainId": "0xaa36a7"
      },
      "additionalContracts": [],
      "isFixedGasLimit": false
    }
  ],
  "receipts": [
    {
      "status": "0x1",
      "cumulativeGasUsed": "0x1f3a121",
      "logs": [
        {
          "address": "0xcdd7901fa3cd7a1af95b84a8b67569c7bce14a43",
          "topics": [
            "0xddf252ad1be2c89b69c2b068fc378daa952ba7f163c4a11628f55a4df523b3ef",
            "0x0000000000000000000000000000000000000000000000000000000000000000",
            "0x00000000000000000000000028c383fc8666f050a6fdea1d5d586e814f9dfe8f",
            "0x0000000000000000000000000000000000000000000000000000000000000001"
          ],
          "data": "0x",
          "blockHash": "0x7ceb51130883e930ceadba7ae54aa67fcad0d4143bd22a09f645d71fbd9c5616",
          "blockNumber": "0x7448d2",
          "transactionHash": "0x3f8cccd32b07642c00afea5d7b2e61b7e3a3aea6ed444c0d20db94106946ca5b",
          "transactionIndex": "0x55",
          "logIndex": "0x10db",
          "removed": false
        }
      ],
      "logsBloom": "0x00000000000000000000000000000000000000000000000000000000000000000000000000000000000000000000000000000000000000000000000000040000000000000000000004020008000000000000000000040000000000000000000000000010020000000000040000000800000000000000000000000010000000000000000000000000000000000000000000000000000000000000000000000000000000000000000000000000020000000000000000000800000000000000000000000002000000000000000000000000000000000000000000000000000060000000000000000000000000000000000000000000000000000000000000000000",
      "type": "0x2",
      "transactionHash": "0x3f8cccd32b07642c00afea5d7b2e61b7e3a3aea6ed444c0d20db94106946ca5b",
      "transactionIndex": "0x55",
      "blockHash": "0x7ceb51130883e930ceadba7ae54aa67fcad0d4143bd22a09f645d71fbd9c5616",
      "blockNumber": "0x7448d2",
      "gasUsed": "0x24155",
      "effectiveGasPrice": "0x45990658",
      "from": "0x28c383fc8666f050a6fdea1d5d586e814f9dfe8f",
      "to": "0xcdd7901fa3cd7a1af95b84a8b67569c7bce14a43",
      "contractAddress": null
    }
  ],
  "libraries": [],
  "pending": [],
  "returns": {},
  "timestamp": 1738456897,
  "chain": 11155111,
  "commit": "0b329b0"
}