{
  "transactions": [
    {
      "hash": "0x5578b4aa939371943b72c12f790e99c60f2012701af627f10ded4b00e3e4e679",
      "transactionType": "CALL",
      "contractName": null,
      "contractAddress": "0xcdd7901fa3cd7a1af95b84a8b67569c7bce14a43",
      "function": "mintNft(string)",
      "arguments": [
        "https://ipfs.io/ipfs/QmSsYRx3LpDAb1GZQm7zZ1AuHZjfbPkD6J7s9r41xu1mf8?filename=pug.png"
      ],
      "transaction": {
        "from": "0x28c383fc8666f050a6fdea1d5d586e814f9dfe8f",
        "to": "0xcdd7901fa3cd7a1af95b84a8b67569c7bce14a43",
        "gas": "0x40f85",
        "value": "0x0",
        "input": "0xda86f4a90000000000000000000000000000000000000000000000000000000000000020000000000000000000000000000000000000000000000000000000000000005468747470733a2f2f697066732e696f2f697066732f516d5373595278334c7044416231475a516d377a5a314175485a6a6662506b44364a3773397234317875316d66383f66696c656e616d653d7075672e706e67000000000000000000000000",
        "nonce": "0x2e",
        "chainId": "0xaa36a7"
      },
      "additionalContracts": [],
      "isFixedGasLimit": false
    }
  ],
  "receipts": [
    {
      "status": "0x1",
      "cumulativeGasUsed": "0xda9439",
      "logs": [
        {
          "address": "0xcdd7901fa3cd7a1af95b84a8b67569c7bce14a43",
          "topics": [
            "0xddf252ad1be2c89b69c2b068fc378daa952ba7f163c4a11628f55a4df523b3ef",
            "0x0000000000000000000000000000000000000000000000000000000000000000",
            "0x00000000000000000000000028c383fc8666f050a6fdea1d5d586e814f9dfe8f",
            "0x0000000000000000000000000000000000000000000000000000000000000000"
          ],
          "data": "0x",
          "blockHash": "0xfdbffac5eb87e23d9fc6ecfa92df5794afd578ec18b6a455a854acea62ddee27",
          "blockNumber": "0x74488d",
          "transactionHash": "0x5578b4aa939371943b72c12f790e99c60f2012701af627f10ded4b00e3e4e679",
          "transactionIndex": "0x37",
          "logIndex": "0xf4",
          "removed": false
        }
      ],
      "logsBloom": "0x00000000000000000000000000000000000000000000000000000000000000000000000000000000000000000000000000000000000000000000000000000000000000000000000004020008000000000000000000000000000000000000000000000010020000000000040000000800000000000000000000000010000000000000000000000000000000000000000000000000000000000000000000000000000000000000000000000000020000000000000000000800000000000000000000000002000000000000000000000000000000000000000000000000000020000000000000000000000000000000000000000000000000000000000000000000",
      "type": "0x2",
      "transactionHash": "0x5578b4aa939371943b72c12f790e99c60f2012701af627f10ded4b00e3e4e679",
      "transactionIndex": "0x37",
      "blockHash": "0xfdbffac5eb87e23d9fc6ecfa92df5794afd578ec18b6a455a854acea62ddee27",
      "blockNumber": "0x74488d",
      "gasUsed": "0x2c6c9",
      "effectiveGasPrice": "0x47de7d31",
      "from": "0x28c383fc8666f050a6fdea1d5d586e814f9dfe8f",
      "to": "0xcdd7901fa3cd7a1af95b84a8b67569c7bce14a43",
      "contractAddress": null
    }
  ],
  "libraries": [],
  "pending": [],
  "returns": {},
  "timestamp": 1738456011,
  "chain": 11155111,
  "commit": "5af6e45"
}