{
  "transactions": [
    {
      "hash": "0xa4ec125121a86bee1a56ca24a5e3a399b368f4333eff669f4eb144e1f61a2998",
      "transactionType": "CALL",
      "contractName": null,
      "contractAddress": "0x9ddfaca8183c41ad55329bdeed9f6a8d53168b1b",
      "function": "fundSubscriptionWithNative(uint256)",
      "arguments": [
        "9929970782370025809564082213265651764134854626883528169543351404708910376986"
      ],
      "transaction": {
        "from": "0x28c383fc8666f050a6fdea1d5d586e814f9dfe8f",
        "to": "0x9ddfaca8183c41ad55329bdeed9f6a8d53168b1b",
        "gas": "0xde88",
        "value": "0x5af3107a4000",
        "input": "0x95b55cfc15f42a0f0568f67cb40b00605a322b7cc18b031909f09ccc6ea2fa255bbca81a",
        "nonce": "0x19",
        "chainId": "0xaa36a7"
      },
      "additionalContracts": [],
      "isFixedGasLimit": false
    }
  ],
  "receipts": [
    {
      "status": "0x1",
      "cumulativeGasUsed": "0xdf29f4",
      "logs": [
        {
          "address": "0x9ddfaca8183c41ad55329bdeed9f6a8d53168b1b",
          "topics": [
            "0x7603b205d03651ee812f803fccde89f1012e545a9c99f0abfea9cedd0fd8e902",
            "0x15f42a0f0568f67cb40b00605a322b7cc18b031909f09ccc6ea2fa255bbca81a"
          ],
          "data": "0x0000000000000000000000000000000000000000000000000003328b944c400000000000000000000000000000000000000000000000000000038d7ea4c68000",
          "blockHash": "0x29d92a25d4603b3e51ad10fecb52eda101ab7ba47fe5b85cc6a4e1d67da63290",
          "blockNumber": "0x70e880",
          "transactionHash": "0xa4ec125121a86bee1a56ca24a5e3a399b368f4333eff669f4eb144e1f61a2998",
          "transactionIndex": "0x4a",
          "logIndex": "0x9b",
          "removed": false
        }
      ],
      "logsBloom": "0x00000000000000002000000000000000000000100020000000000000001000000000000000000000000000000000000000000000000000000000000000000000004000000000000000000000000000000000000000000000000000000000000008000000000000800000000000000000000000000000000000000000000000000000000000000000000000010000000000000000000000000000000000000000000000000000000000000000000000000000000000000000000001000000000000000000000000000000000000000000000000000000000000000000000000000000000000000000000000000000000000000000000000000000000000000000",
      "type": "0x2",
      "transactionHash": "0xa4ec125121a86bee1a56ca24a5e3a399b368f4333eff669f4eb144e1f61a2998",
      "transactionIndex": "0x4a",
      "blockHash": "0x29d92a25d4603b3e51ad10fecb52eda101ab7ba47fe5b85cc6a4e1d67da63290",
      "blockNumber": "0x70e880",
      "gasUsed": "0x9829",
      "effectiveGasPrice": "0x2fc1a80f6",
      "from": "0x28c383fc8666f050a6fdea1d5d586e814f9dfe8f",
      "to": "0x9ddfaca8183c41ad55329bdeed9f6a8d53168b1b",
      "contractAddress": null
    }
  ],
  "libraries": [],
  "pending": [],
  "returns": {},
  "timestamp": 1735737997,
  "chain": 11155111,
  "commit": "5aee27a"
}