{
  "transactions": [
    {
      "hash": "0xead1c345c34ff31c3ceb0c2d65f3543c705d1c536fa4e66cf8ba6a639c58b3fd",
      "transactionType": "CALL",
      "contractName": null,
      "contractAddress": "0x9ddfaca8183c41ad55329bdeed9f6a8d53168b1b",
      "function": "fundSubscriptionWithNative(uint256)",
      "arguments": [
        "9929970782370025809564082213265651764134854626883528169543351404708910376986"
      ],
      "transaction": {
        "from": "0x28c383fc8666f050a6fdea1d5d586e814f9dfe8f",
        "to": "0x9ddfaca8183c41ad55329bdeed9f6a8d53168b1b",
        "gas": "0xde88",
        "value": "0x5af3107a4000",
        "input": "0x95b55cfc15f42a0f0568f67cb40b00605a322b7cc18b031909f09ccc6ea2fa255bbca81a",
        "nonce": "0xc",
        "chainId": "0xaa36a7"
      },
      "additionalContracts": [],
      "isFixedGasLimit": false
    }
  ],
  "receipts": [
    {
      "status": "0x1",
      "cumulativeGasUsed": "0x70c89d",
      "logs": [
        {
          "address": "0x9ddfaca8183c41ad55329bdeed9f6a8d53168b1b",
          "topics": [
            "0x7603b205d03651ee812f803fccde89f1012e545a9c99f0abfea9cedd0fd8e902",
            "0x15f42a0f0568f67cb40b00605a322b7cc18b031909f09ccc6ea2fa255bbca81a"
          ],
          "data": "0x00000000000000000000000000000000000000000000000000027ca57357c0000000000000000000000000000000000000000000000000000002d79883d20000",
          "blockHash": "0xe3bc705150a0daa050f740fc31192494e4444d9eb12fdcb15df453d2e6958182",
          "blockNumber": "0x70e687",
          "transactionHash": "0xead1c345c34ff31c3ceb0c2d65f3543c705d1c536fa4e66cf8ba6a639c58b3fd",
          "transactionIndex": "0x30",
          "logIndex": "0x86",
          "removed": false
        }
      ],
      "logsBloom": "0x00000000000000002000000000000000000000100020000000000000001000000000000000000000000000000000000000000000000000000000000000000000004000000000000000000000000000000000000000000000000000000000000008000000000000800000000000000000000000000000000000000000000000000000000000000000000000010000000000000000000000000000000000000000000000000000000000000000000000000000000000000000000001000000000000000000000000000000000000000000000000000000000000000000000000000000000000000000000000000000000000000000000000000000000000000000",
      "type": "0x2",
      "transactionHash": "0xead1c345c34ff31c3ceb0c2d65f3543c705d1c536fa4e66cf8ba6a639c58b3fd",
      "transactionIndex": "0x30",
      "blockHash": "0xe3bc705150a0daa050f740fc31192494e4444d9eb12fdcb15df453d2e6958182",
      "blockNumber": "0x70e687",
      "gasUsed": "0x9829",
      "effectiveGasPrice": "0xca9b9ca7",
      "from": "0x28c383fc8666f050a6fdea1d5d586e814f9dfe8f",
      "to": "0x9ddfaca8183c41ad55329bdeed9f6a8d53168b1b",
      "contractAddress": null
    }
  ],
  "libraries": [],
  "pending": [],
  "returns": {},
  "timestamp": 1735731493,
  "chain": 11155111,
  "commit": "4c08d4a"
}