{
  "transactions": [
    {
      "hash": "0x56bd80db5dd86b8ced01a428c958dcf7cef1bb2523c0dc9e40ffb41a08edd4d3",
      "transactionType": "CALL",
      "contractName": null,
      "contractAddress": "0x9ddfaca8183c41ad55329bdeed9f6a8d53168b1b",
      "function": "fundSubscriptionWithNative(uint256)",
      "arguments": [
        "9929970782370025809564082213265651764134854626883528169543351404708910376986"
      ],
      "transaction": {
        "from": "0x28c383fc8666f050a6fdea1d5d586e814f9dfe8f",
        "to": "0x9ddfaca8183c41ad55329bdeed9f6a8d53168b1b",
        "gas": "0xde88",
        "value": "0x5af3107a4000",
        "input": "0x95b55cfc15f42a0f0568f67cb40b00605a322b7cc18b031909f09ccc6ea2fa255bbca81a",
        "nonce": "0xb",
        "chainId": "0xaa36a7"
      },
      "additionalContracts": [],
      "isFixedGasLimit": false
    }
  ],
  "receipts": [
    {
      "status": "0x1",
      "cumulativeGasUsed": "0xb1ab19",
      "logs": [
        {
          "address": "0x9ddfaca8183c41ad55329bdeed9f6a8d53168b1b",
          "topics": [
            "0x7603b205d03651ee812f803fccde89f1012e545a9c99f0abfea9cedd0fd8e902",
            "0x15f42a0f0568f67cb40b00605a322b7cc18b031909f09ccc6ea2fa255bbca81a"
          ],
          "data": "0x000000000000000000000000000000000000000000000000000221b262dd800000000000000000000000000000000000000000000000000000027ca57357c000",
          "blockHash": "0xaaf3fb71aa10d8d25838f8855d4c834074d2c898808bae242fb20f02710e3c3f",
          "blockNumber": "0x70e67c",
          "transactionHash": "0x56bd80db5dd86b8ced01a428c958dcf7cef1bb2523c0dc9e40ffb41a08edd4d3",
          "transactionIndex": "0x3b",
          "logIndex": "0xc4",
          "removed": false
        }
      ],
      "logsBloom": "0x00000000000000002000000000000000000000100020000000000000001000000000000000000000000000000000000000000000000000000000000000000000004000000000000000000000000000000000000000000000000000000000000008000000000000800000000000000000000000000000000000000000000000000000000000000000000000010000000000000000000000000000000000000000000000000000000000000000000000000000000000000000000001000000000000000000000000000000000000000000000000000000000000000000000000000000000000000000000000000000000000000000000000000000000000000000",
      "type": "0x2",
      "transactionHash": "0x56bd80db5dd86b8ced01a428c958dcf7cef1bb2523c0dc9e40ffb41a08edd4d3",
      "transactionIndex": "0x3b",
      "blockHash": "0xaaf3fb71aa10d8d25838f8855d4c834074d2c898808bae242fb20f02710e3c3f",
      "blockNumber": "0x70e67c",
      "gasUsed": "0x9829",
      "effectiveGasPrice": "0xb42836ff",
      "from": "0x28c383fc8666f050a6fdea1d5d586e814f9dfe8f",
      "to": "0x9ddfaca8183c41ad55329bdeed9f6a8d53168b1b",
      "contractAddress": null
    }
  ],
  "libraries": [],
  "pending": [],
  "returns": {},
  "timestamp": 1735731349,
  "chain": 11155111,
  "commit": "ee86c02"
}