{
  "transactions": [
    {
      "hash": "0xac50b4425241a05e8b336fd621bbecc4212f78e616cbcab1b45e21c47cc95c7a",
      "transactionType": "CALL",
      "contractName": null,
      "contractAddress": "0x9ddfaca8183c41ad55329bdeed9f6a8d53168b1b",
      "function": "fundSubscriptionWithNative(uint256)",
      "arguments": [
        "9929970782370025809564082213265651764134854626883528169543351404708910376986"
      ],
      "transaction": {
        "from": "0x28c383fc8666f050a6fdea1d5d586e814f9dfe8f",
        "to": "0x9ddfaca8183c41ad55329bdeed9f6a8d53168b1b",
        "gas": "0xde88",
        "value": "0x5af3107a4000",
        "input": "0x95b55cfc15f42a0f0568f67cb40b00605a322b7cc18b031909f09ccc6ea2fa255bbca81a",
        "nonce": "0xd",
        "chainId": "0xaa36a7"
      },
      "additionalContracts": [],
      "isFixedGasLimit": false
    }
  ],
  "receipts": [
    {
      "status": "0x1",
      "cumulativeGasUsed": "0x93f049",
      "logs": [
        {
          "address": "0x9ddfaca8183c41ad55329bdeed9f6a8d53168b1b",
          "topics": [
            "0x7603b205d03651ee812f803fccde89f1012e545a9c99f0abfea9cedd0fd8e902",
            "0x15f42a0f0568f67cb40b00605a322b7cc18b031909f09ccc6ea2fa255bbca81a"
          ],
          "data": "0x0000000000000000000000000000000000000000000000000002d79883d200000000000000000000000000000000000000000000000000000003328b944c4000",
          "blockHash": "0x973931fb9d29c29fd39aa86b1920e575914c695e79d6a10ba9b8233ac6003183",
          "blockNumber": "0x70e695",
          "transactionHash": "0xac50b4425241a05e8b336fd621bbecc4212f78e616cbcab1b45e21c47cc95c7a",
          "transactionIndex": "0x34",
          "logIndex": "0x86",
          "removed": false
        }
      ],
      "logsBloom": "0x00000000000000002000000000000000000000100020000000000000001000000000000000000000000000000000000000000000000000000000000000000000004000000000000000000000000000000000000000000000000000000000000008000000000000800000000000000000000000000000000000000000000000000000000000000000000000010000000000000000000000000000000000000000000000000000000000000000000000000000000000000000000001000000000000000000000000000000000000000000000000000000000000000000000000000000000000000000000000000000000000000000000000000000000000000000",
      "type": "0x2",
      "transactionHash": "0xac50b4425241a05e8b336fd621bbecc4212f78e616cbcab1b45e21c47cc95c7a",
      "transactionIndex": "0x34",
      "blockHash": "0x973931fb9d29c29fd39aa86b1920e575914c695e79d6a10ba9b8233ac6003183",
      "blockNumber": "0x70e695",
      "gasUsed": "0x9829",
      "effectiveGasPrice": "0xbe6f4897",
      "from": "0x28c383fc8666f050a6fdea1d5d586e814f9dfe8f",
      "to": "0x9ddfaca8183c41ad55329bdeed9f6a8d53168b1b",
      "contractAddress": null
    }
  ],
  "libraries": [],
  "pending": [],
  "returns": {},
  "timestamp": 1735731673,
  "chain": 11155111,
  "commit": "4c08d4a"
}